:020000041000EA
:10000000002008205D0100101B01001049040010B1
:100010001101001011010010110100101101001058
:10002000190100101901001019010010ED9B0010BA
:1000300011010010190100106D9B0010F5970010C0
:100040001101001011010010110100101101001028
:100050001101001011010010110100101101001018
:100060001101001011010010110100101101001008
:1000700011010010110100101101001011010010F8
:1000800011010010110100101101001011010010E8
:1000900011010010110100101101001011010010D8
:1000A00011010010110100101101001011010010C8
:1000B00011010010110100101101001011010010B8
:1000C00011010010110100101101001011010010A8
:1000D0001101001011010010110100101101001098
:1000E0001101001011010010110100101101001088
:1000F0001101001011010010110100101101001078
:100100001101001011010010110100101101001067
:10011000EFF30580103800BE00BE00BE00BE00BE7A
:1001200000BE00BEF2EB887150B6011070B601102F
:10013000A001001090A31AE7D3DEFFFF42012110B7
:10014000FF01000028E50100793512AB4FF00000F7
:100150001E49086006C881F3088810474FF05040D8
:10016000006810B14FF00000F2E70DA40ECC00299A
:1001700002D000F012F8F9E71549164A002000E015
:1001800001C19142FCD11449884714498847144958
:10019000884700BEFDE701C901C29A42FBD3704700
:1001A00070B60110100100200031002060E601103F
:1001B000000008200000082060E601100010082060
:1001C00000100820000000007047000008ED00E06B
:1001D00000310020841D0620994D0010BD04001040
:1001E000914D0010F8B500BF064B0749C91A891098
:1001F00048BF0131491003D0044B0BB101481847E7
:10020000704700BF003100200031002000000000D6
:1002100008B5054B1BB105490548AFF30080BDE8A3
:100220000840FFF7E1BF00BF0000000010180520E4
:10023000F87E01102DE9F04F4FF0000A4FF0F00961
:100240004FF4A07887B04D4E4D4D0DF1110B0CF0D1
:100250001FFA0BE0039B4B48002B0CBF314629468D
:100260009DF805309DF8042004F0D2FF0DF1050241
:1002700001A903A80CF040FA04460028EAD10DF1C8
:1002800007030DF106020DF10A0102A808F06EFF46
:10029000002844D040F27F2340F2DF12BDF808105E
:1002A0002746414409B29942A8BF1946BDF80A3011
:1002B00021EAE178A9EB03031BB29342A8BF1346DE
:1002C00023EAE3794946404601F098F99DF8070092
:1002D00001F0ACF90F238DF810309DF8073004A819
:1002E000CBF80040CBF80340ADF812808DF8163003
:1002F000ADF8149001F0B6F89DF8073068F30F07D9
:1003000083EA0A01CA0769F31F475FFA81FA20D41A
:100310001AF0020F07D19A4601231B4A13700820D6
:100320000AF032FB93E713F0020F0CBF13201220E8
:1003300000218DF8100004A8CBF80010CBF80310B2
:100340008DF81630CDF8127001F08CF89DF807305A
:10035000E1E7CBF80040CBF803408DF8163003F00E
:100360000103C3F1110304A88DF81030CDF8127009
:1003700001F078F89DF80730CAE700BFFC7E011055
:10038000F87E0110007F0110EC290020F8B5002450
:100390004FF00107192547EC405017F039FD214671
:1003A00002460A4804F034FF04F05CFE4FF4FA7091
:1003B0000AF0EAFA661C4FF0000343EC40504FF499
:1003C000FA700AF0E1FA3446E4E700BF247F011036
:1003D00008B500214FF0FF3005F014FD01200AF0B0
:1003E000D3FAF6E708B50BF0A9FE0025064C2378F2
:1003F000002BFCD0257001F083F800F05DFE0BF0BF
:1004000019F80028F3D1FAE7EC29002030B585B0BF
:10041000044603AB0A4802AA01A902F029FC18B954
:1004200054B9204605B030BD0546DDE902120198F9
:1004300002F05CFB2C46F4E70149024801F074F934
:1004400060D803003C7F011010B54FF050404FF0D2
:100450000074184ADFF860E084B084634FF0020C47
:10046000002184610191019B934205DA019B0133D4
:100470000193019B9342F9DB04620291029B934238
:1004800005DA029B01330293029B9342F9DBBCF134
:10049000010F0BD100230393039B7345DEDA039B0B
:1004A00001330393039B7345F9DBD7E74FF0010C4E
:1004B000D7E700BF809698000087930370B50020AF
:1004C00084B0FFF7A3FF002800F0AC8004F0DCFD4F
:1004D00008244FF4FA7002F025F9013CF9D11920F3
:1004E00001F0FEF819234FF0010242EC44304F486E
:1004F00004F00EFE052002F0F3FA01464C4B4D4885
:10050000A3FB0131890C04F083FE4B4804F000FE8C
:1005100004F0A8FD494804F0FBFD04F0A3FD00F041
:10052000B7F8474804F0F4FD04F09CFD454804F09A
:10053000EFFD04F097FD0CF073F8434804F0E8FD7C
:1005400004F090FD414804F0E3FD04F08BFD2146EA
:100550003F4808F0F9F850B108F0E8F900285DD0FC
:1005600008F070FE01463B4804F052FE02E03A48B3
:1005700004F0CEFD00247825384E04F073FD00F021
:1005800013FAC8234FF4967250210195CDE9024425
:100590000096642000F024FA054600F023FB29466B
:1005A0002F4804F035FE04F05DFD00F085FD4FF4AA
:1005B000885207252B4B2C481A6007F0FFF964205E
:1005C00002F0B0F8294804F0A3FD04F04BFDCDE99A
:1005D0000054012523464FF48072254925480AF02E
:1005E000C1F9CDE90054032523464FF40072224996
:1005F00022480AF0B7F94FF400722346CDE90054BF
:100600001F4920480AF0AEF984F311881E4804F00F
:100610007FFD04F027FD0AF015FAFEE71B4804F001
:1006200077FDA7E70120FFF7F1FE4FE7707F01108C
:1006300083DE1B43807F0110907F0110A47F011097
:10064000BC7F0110D07F0110F07F01100C800110E1
:1006500000002050288001106C800110888001105B
:100660009480011000800640E5030010B480011062
:10067000E4800110D1030010E88001108D03001008
:10068000F480011035020010FC8001104C80011034
:1006900008B500214FF416320A4815F005FF4FF453
:1006A00016320021084815F0FFFE01200BF00CFA6D
:1006B00006480AF0C5FE064B1868BDE808400AF077
:1006C000A5BE00BF2863002028BB0220309801107F
:1006D000F0290020B0F5207F16D2B1F5F07F13D2BB
:1006E00010B40E4B01EB81011C68431003EB811326
:1006F000C007E15C02F00F0207D521F00F010A43A9
:10070000E2545DF8044B7047704701F00F0141EA75
:100710000211E1545DF8044B704700BFF42900203A
:10072000034605494FF41632086803F00F0141EA09
:100730000311C9B215F0B8BEF4290020034A044BD6
:1007400010681968186011600AF06ABEF429002068
:10075000F0290020F8B5151E0BDD0E461F46044695
:10076000054420463A4631460134FFF7B3FFAC4218
:10077000F7D1F8BDF8B5151E0BDD06461F460C4631
:100780000D4421463A4630460134FFF7A3FFAC4200
:10079000F7D1F8BD2DE9F843002B9DF8207012DD4C
:1007A000002A10DD80460D46161803EB0109444669
:1007B00020463A4629460134FFF78CFFB442F7D170
:1007C00001354D45F3D1BDE8F88300BF2DE9F84F61
:1007D000B2F1000980460C469A469DF8285016DD75
:1007E0000646074609EB000B38462A4621460137E4
:1007F000FFF770FF5F45F7D104EB0A07013F304672
:100800002A4639460136FFF765FF5E45F7D1BAF152
:10081000000F14DD2646A24431462A4640460136E2
:10082000FFF758FF5645F7D1C84408F1FF38214675
:100830002A4640460134FFF74DFF5445F7D1BDE845
:10084000F88F00BF2DE9F04F89B09DF84840DDF8E2
:10085000549001941446DDE9137C1278002A6ED07E
:100860000D4619464FF080082B46BA4625464E469F
:100870000C4604E015F8012F0830002A5FD0C11D96
:100880008A45F7DC0AEB06078742F3DD9946203AF2
:100890005FFA82FEBEF15E0F96BF2A492A4A01EB3B
:1008A0000212D21A0592169ACDF84CA00CEB020E49
:1008B000CA4603F110020693DDF84C90734604908B
:1008C0000795159603E00AF1010A52452DD0D4454B
:1008D000F9DC5345F7DD049DCDE902322B460026B5
:1008E0003D461F460599CDF850C011F80AB0B945EC
:1008F00048FA06F20BDCBD4209DD019B12EA0B0F40
:100900000CBF1A46224651463846FFF7E3FE013631
:10091000082E07F10107EAD1DDE902320AF1010AE6
:1009200052452F46DDF850C0D1D10498DDE9063597
:1009300015F8012FCA46159E0830002A9FD109B02C
:10094000BDE8F08F70980110609A01102DE9F04712
:10095000144F81460E4607F1E40800F10C0A04E04A
:100960000C37474506F101061AD0B6F5F07FF7D2ED
:100970004C463D4615F8013B53B1B4F5207F07D2F4
:10098000012B14BF0F22002231462046FFF7A2FEA2
:1009900001345445EED10C37474506F10106E4D148
:1009A000BDE8F087609E011008B500F043FD4FF4EC
:1009B00050720021064815F077FD0023054A0648CD
:1009C0000649C2E90033C2E9023303700B7008BD67
:1009D0005C190620E8540020831D0620711D0620A6
:1009E0002DE9F04F7B4C83B02578804615F001054A
:1009F0000F4616469DF83490009350D094F834304A
:100A0000DD0740F19B8094F86830D80740F1A08062
:100A100094F89C30D90740F1A08094F8D030DA07E0
:100A200040F1A08094F80431DB0740F1A08094F8F5
:100A30003831DD0740F1A08094F86C31D80740F1DF
:100A4000A08094F8A031D90740F1A08094F8D43167
:100A5000DA0740F1A08094F80832DB0740F1A0806B
:100A600094F83C32DD0740F1A08094F87032D8074A
:100A700069D594F8A432D90740F19C8094F8D83213
:100A8000DA0740F19C8094F80C33DB0748BF4FF045
:100A9000000B40F19980584603B0BDE8F08F4FF04D
:100AA000010B2B460195342202FB03FA04EB0A05E5
:100AB0000021284615F0F8FC00231846464A09F0A4
:100AC000780968F30F0067F31F4069F07C096B70C9
:100AD00004F80A9042F80A0018460F21009B66F3BA
:100AE0000F00524463F31F400E9B5060D5F8022064
:100AF000EB620F9BC5F80A202B63D5F806200C9BF0
:100B0000A974C5F80E204BB10AF11400194617223A
:100B1000204415F0B9FD002385F82B3034212F4AED
:100B20000198137801FB0044581C107058462C495A
:100B3000E37401F803B003B0BDE8F08F01234FF078
:100B4000020B0193AFE70C234FF00D0B0193AAE7C3
:100B500002234FF0030B0193A5E703234FF0040B8F
:100B60000193A0E704234FF0050B01939BE70523B6
:100B70004FF0060B019396E706234FF0070B019306
:100B800091E707234FF0080B01938CE708234FF000
:100B9000090B019387E709234FF00A0B019382E7C2
:100BA0000A234FF00B0B01937DE70B234FF00C0B47
:100BB000019378E70D234FF00E0B019373E70E239B
:100BC0004FF00F0B01936EE70F234FF0100B0193C3
:100BD00069E700BF5C1906205E190620831D062008
:100BE000E8540020A14A1378834200F02581013B9C
:100BF000D9B20F29F0B50BD8342101FB03F39C4C7B
:100C0000E15CCD0704D521F0040161F07F01E154DE
:100C1000431ED9B20F29107000F20D81342404FB59
:100C200003F39349CA5CCD1812F0010C00F0038164
:100C300062F07B02CA548F4B1A78002A00F0FB80C6
:100C40008D4B93F800E0704500F01881012A00F008
:100C5000BB815D78854200F0BE81022A00F0C1812F
:100C600093F802C0844500F0C881032A00F0C981CE
:100C7000DC78844200F0D181042A00F0DE801C7907
:100C8000844200F0CE81052A00F0D7805C7984424E
:100C900000F0CB81062A00F0D0809C79844200F0DD
:100CA000C881072A00F0C980DC79844200F0C58140
:100CB000082A00F0C2801C7A844200F0C281092A0E
:100CC00000F0BB805C7A844200F0BF810A2A00F009
:100CD000B4809C7A844200F0BC810B2A00F0AD8085
:100CE000DC7A844200F0B9810C2A00F0A6801C7BDB
:100CF000844200F0B6810D2A00F09F805C7B844224
:100D000000F0B3810E2A00F098809C7B844200F0B2
:100D1000B0810F2A00F09180DC7B844200F0AD812D
:100D20003425002701264FF0020C5C7898780EF1EC
:100D3000FF3E013C013805FB0E1E05FB041405FBBC
:100D400000108EF81370E67480F813C03420032569
:100D5000DC78042A04F1FF3400FB0414E5746AD043
:100D600004251C79052A04F1FF3400FB0414E57402
:100D700061D005255C79062A04F1FF3400FB0414D8
:100D8000E57458D006259C79072A04F1FF3400FB4E
:100D90000414E5744FD00725DC79082A04F1FF34E8
:100DA00000FB0414E57446D008251C7A092A04F1D6
:100DB000FF3400FB0414E5743DD009255C7A0A2A4F
:100DC00004F1FF3400FB0414E57434D00A259C7A46
:100DD0000B2A04F1FF3400FB0414E5742BD00B251F
:100DE000DC7A0C2A04F1FF3400FB0414E57422D0F1
:100DF0001C7B0D2A04F1FF3400FB04104FF00C049F
:100E0000C47418D034240D25587B0E2A00F1FF300D
:100E100004FB0010C5740ED00E25987B0F2A00F13C
:100E2000FF3004FB0010C57405D00F22DB7B013BB3
:100E300004FB0313DA74F0BD704734250027012644
:100E40001C785878013C013805FB041405FB0010A0
:100E5000E774C674342502249878032A00F1FF3021
:100E600005FB0010C4747FF471AFF0BD711D062046
:100E70005C190620831D0620E8540020541E08BF7C
:100E8000EC74D8D00025AC4603EB050E9EF801E0CB
:100E900003F805E00CF10105A5427EDA03EB050E2F
:100EA0009EF801E003F805E00CF10205A54274DAB2
:100EB00003EB050E9EF801E003F805E00CF10305D5
:100EC000A5426ADA03EB050E9EF801E003F805E09F
:100ED0000CF10405A54260DA03EB050E9EF801E073
:100EE00003F805E00CF10505A54256DA03EB050E03
:100EF0009EF801E003F805E00CF10605A5424CDA86
:100F000003EB050E9EF801E003F805E00CF1070580
:100F1000A54242DA03EB050E9EF801E003F805E076
:100F20000CF10805A54238DA03EB050E9EF801E046
:100F300003F805E00CF10905A5422EDA5E19767872
:100F40005E550CF10A05A54227DA5E1976785E55E2
:100F50000CF10B05A54220DA5E1976785E550CF18E
:100F60000C05A54219DA5E1976785E550CF10D056F
:100F7000A54212DA5E1976785E550CF10E05A5428F
:100F80000BDA5E1976780CF10F0CA4455E5504DA85
:100F900003EB0C056D7803F80C503425185500242C
:100FA0001878022A00F1FF3005FB00104FF03405DD
:100FB000C4744FF00104587800F1FF3005FB0010B5
:100FC000C4743FF647AFF0BD00220EF1FF3304FBBF
:100FD0000313DA74F0BD0125541EAC423FF754AF41
:100FE000DBE70EF1FF326B1E04FB021204FB03135E
:100FF00000200121D074D974F0BD4FF0020C654679
:10100000EAE7013D0EF1FF3004FB001004FB05147C
:101010000025C5740120E0741CE74FF0030C654601
:10102000DAE74FF0040C6546D6E74FF0050C65464D
:10103000D2E74FF0060C6546CEE74FF0070C654649
:10104000CAE74FF0080C6546C6E74FF0090C654645
:10105000C2E74FF00A0C6546BEE74FF00B0C654641
:10106000BAE74FF00C0C6546B6E74FF00D0C65463D
:10107000B2E74FF00E0C6546AEE74FF00F0C654639
:10108000AAE700BF014B1878704700BF711D06200A
:101090000138C3B20F2B0AD8342202FB00F0054BF3
:1010A0001A5C184412F0010F08BF0020704700209E
:1010B000704700BF5C1906202DE9F04F032091B066
:1010C000FFF72EFB994B1978002900F00D810023C2
:1010D0004FF034099B46964ADFF858820892089BE5
:1010E00013F8012B541ECDE9083209FB04F318F85C
:1010F00003204344900740F1F080B3F90810B3F99E
:101100000260079102F004015206B3F90450B3F9EA
:10111000067040F18581002900F0028101230A93C5
:101120000F234FF0070A0C9302233A462946304614
:10113000CDF800A0FFF72EFB079A0223A91830462E
:101140003A46CDF800A00239FFF724FB02222946D7
:101150003046079BCDF800A0FFF71CFBF0190222D8
:101160002946079BCDF800A00238FFF713FB0A9A27
:1011700006F1020AA91C1223009250463A1F0B9155
:10118000FFF708FB09FB04F318F803300B9913F081
:10119000080F0DD1DB0600F1CF80A7F10803002B6B
:1011A0000EDCB3B20A93ABB21FFA87FA0B9367E077
:1011B000D80600F1A980A7F11A03002B40F3A980FB
:1011C0001222CDF804A009FB04FACDE902130A9B10
:1011D00004920AF11402009342440C9BE91CB01DD6
:1011E000FFF730FB18F80A30B2B20A92AAB20B929B
:1011F0001A071FFA87FA41D507236FF002070093F9
:101200000A9B10220AEB03060B9B143E1D1D36B2EF
:101210002DB2294630460E23FFF7BCFA2946304648
:101220000F231022FFF796FA294630460F230E228D
:10123000FFF7A0FA304605F10D0108231022FFF751
:1012400089FA294606F10F0008230E22FFF792FAC9
:10125000083607350C94F419E91900222046FFF7E7
:1012600039FAE91B002220460137FFF733FA042F31
:10127000F1D10C9C09FB04F318F80330DB0666D4AB
:1012800009FB0485079B0B990A98AD7C163BAAF1D4
:1012900004021BB212B21431023023EAE37322EAD1
:1012A000E27209B200B20095FFF774FA09FB0485F7
:1012B0002B6B43B1099E304600F0BEF930462B6BD4
:1012C000984700F0BBF909FB04F4184B197818F89B
:1012D000043003F07F0308F804300BF101035FFAD8
:1012E00083FB8B45FFF4FBAE0DF13E010FA800F030
:1012F00095F9BDF93E10BDF93C00FFF727FBFFF75C
:101300001DFA11B0BDE8F08FA7F13E03002B3FF7A7
:1013100057AFB3B20A93ABB21FFA87FA0B936BE7DE
:10132000082307229A460A930C92FDE6831D0620A5
:10133000E85400205C190620A7F12C03002B3FF78E
:101340003FAFB3B20A93ABB21FFA87FA0B930727EA
:10135000009700270A9B0B9A53449BB2A3F12606E1
:10136000151D2DB236B2294630460C9310220E239D
:10137000FFF710FA294630460F231022FFF7EAF94B
:10138000294630460F230E22FFF7F4F905F10D012F
:101390003046082310220D91FFF7DCF9294606F1AB
:1013A0000F00082303360E22FFF7E4F93046E91C4C
:1013B00008230A220097FFF709FA3B463046291D09
:1013C0000A22FFF7C7F907220C9B2946A3F138062A
:1013D00036B2304600920E231022FFF7DBF9294681
:1013E00030460F231022FFF7B5F9294630460F2368
:1013F0000E22FFF7BFF930460D9908231022FFF7A0
:10140000A9F9294606F10F0008230E22FFF7B2F9C9
:101410003B460A2205F10901F01CFFF79BF92FE773
:101420009B7C3A46009329463046079BFFF7B2F96A
:101430003CE700BF38B5012000F022FA00F044FA82
:1014400000230449044A054D054C2B700B701370A2
:10145000206038BD6F1D0620701D06206E1D062001
:101460009C5E0020F8B50446FFF70CFE08B900208A
:10147000F8BD002CFBD01C4903460A68EFF3108E20
:1014800072B6D2E8CF5F0120002DFAD1C2E8450F35
:10149000002DF6D1BFF35F8F144A0D6892F900005A
:1014A000117800281ADB124E01311170327811497F
:1014B000206801EBC20C61680027ACE803000E490C
:1014C0008B54013202F07F023270C5E88F7F8EF3B9
:1014D00010880123094A18461370F8BD0023C5E897
:1014E0008F3F8EF31088C2E79C5E00206E1D0620A1
:1014F0006F1D0620A45E0020A4620020F8290020B1
:101500002DE9F043DFF8F08083B098F80030002B2D
:1015100063D0334C334D344F344E1EE00D2B0FD17E
:1015200001229DF802303248D90803F007039A409F
:10153000435C23EA020343549DF803202D4B1A70A9
:101540004846FFF7A5FD20B1C36A13B16946484676
:10155000984798F80030002B3FD02368EFF3108CA9
:1015600072B6D3E8CF1F01220029FAD1C3E8412F78
:101570000029F6D1BFF35F8F98F80030D4F800E06F
:10158000591E33B32A7888F80010531C06EBC201A9
:1015900003F07F032B7003C900238DE8030017F8C5
:1015A0000290CEE88F3F8CF310889DF800300C2B12
:1015B000B4D101239DF802200D48D10802F00702A2
:1015C0009340425C134343540A4A9DF8033013701E
:1015D000B6E7CEE88F3F8CF3108803B0BDE8F08308
:1015E0009C5E0020701D0620A4620020A45E0020E6
:1015F00044170520781D06206E1D0620012210B418
:10160000044B054C89B241EA004121601A705DF833
:10161000044B7047F8290020FC290020024B1B686E
:101620001A0C02800B807047FC290020014B1870B7
:10163000704700BF791D0620FFF72ABD704700BF25
:1016400010B44FF480740C4B53F8202003EB80034C
:10165000C00082F0400200F1804003F5805C02F09F
:10166000C00200F5203003F54053CCF80020416063
:101670001C605DF8044B70470480034010B4084CB4
:10168000C90041EA820154F8202004EB8003514054
:1016900003F5805301F00C015DF8044B19607047AD
:1016A00004800340054B53F8202003EB8003514096
:1016B00001F0010103F58053196070470480034075
:1016C000064B53F8202003EB800382EA011202F05C
:1016D000300203F580531A60704700BF0480034056
:1016E00030B44FF0000343EC440043EC40000525C8
:1016F0004FF480740B4BC20053F8201003EB8000B2
:1017000081F0400102F1804303F5203301F0C00273
:1017100000F5805100F540500A605D60046030BC07
:10172000704700BF048003400FB400B583B0049C31
:10173000074803F0EDFC3CB105A92046019103F0F8
:10174000C1FA044803F0E4FC012003F0D3FA00BF1F
:101750001481011050840110EFF3108072B6064B13
:10176000D3E8CF1F01220029FAD1C3E8412F002975
:10177000F6D1BFF35F8F7047075A00200023034A5A
:10178000C2E88F3F80F31088704700BF075A0020DF
:1017900070B58646EFF3108572B6124CD4E8CF6F61
:1017A0000120002EFAD1C4E8460F002EF6D1BFF377
:1017B0005F8F4FF0010CC80801F007030CFA03F328
:1017C0001EF800C01CEA030608D14CEA030C0EF810
:1017D00000C0C4E88F6F85F3108870BD1046FFF716
:1017E000A3FF00BF075A0020F8B5EFF3108772B6C9
:1017F0001C4ED6E8CF5F0124002DFAD1C6E8454F34
:10180000002DF6D1BFF35F8F9A421BD8012502E06D
:101810000132934222D3D40810F804E002F0070CFE
:1018200005FA0CFC1EEA0C0FF2D14EEA0C0E00F881
:1018300004E010460023C6E88F3F87F310889842E3
:1018400007DBF8BD0023C6E88F3F87F310884FF011
:10185000FF300029F5D00698FFF766FF4FF0FF3004
:10186000E8E700BF075A0020044A1078431CDBB2A7
:10187000182B28BF10231370704700BF002A0020C8
:1018800010B5054C82B001461F231822009403486E
:10189000FFF7AAFF02B010BD24810110245E0020D2
:1018A0004FF0E022936843F000539360704700BF0D
:1018B0000021044B03F12002C3E88F1F0133934240
:1018C000FAD17047FC590020024B00221844C0E8AE
:1018D0008F2F7047FC5900204FF0E0234FF08032EB
:1018E000C3F80024C3F80424C3F80824C3F80C2464
:1018F000C3F81024C3F81424C3F81824C3F81C2414
:10190000C3F82024C3F82424C3F82824C3F82C24C3
:10191000C3F8302462B67047012300F01F029340E1
:10192000400941B1800000F1604000F56140C0F81D
:10193000803103607047024A203042F820307047FF
:1019400000E100E00123064A410952F8212000F09D
:101950001F0003FA00F01040003818BF0120704744
:1019600000E100E001224309034900F01F0082402A
:10197000403341F82320704700E100E0054A103071
:101980009268054B52F82000C01A2F288CBF002007
:101990000120704700ED00E0042A0020F8B50D4654
:1019A000EFF3108772B6124ED6E8CF2F0123002A2C
:1019B000FAD1C6E8423F002AF6D1BFF35F8F0D4B44
:1019C00000F110049B680C4A53F82430934203D072
:1019D000994201D001F01EFB064B9B6843F824504E
:1019E000BFF35F8F0023C6E88F3F87F31088F8BDF1
:1019F000055A002000ED00E01101001010B4EFF3D3
:101A0000108172B6114BD3E8CF4F0122002CFAD1CE
:101A1000C3E8442F002CF6D1BFF35F8F0C4A10307F
:101A20009468002254F82000C3E88F2F81F31088B7
:101A3000084B984207D0084BC31A2F2B98BF10466B
:101A40005DF8044B70471046FAE700BF055A0020C6
:101A500000ED00E011010010042A00202DE9F04FF4
:101A600081468B46164683B0EFF3108372B6DFF8DB
:101A7000D0A10093DAE8CF1F01230029FAD1CAE8E8
:101A8000413F0029F6D1BFF35F8F664B93F90040C9
:101A9000002CC0F2A080644D04EB440705EB8708DE
:101AA00098F8061009F110091970604BBF009B6887
:101AB00053F829006300411B2F292FD95C49884224
:101AC00040F0A4801C445B4B02372F44043BDB1BDB
:101AD000C3F34A036FEAC3434FF421416FEAD34390
:101AE00025F8241005EB840463804BF60153A38092
:101AF000FF2348F00100E671C4F808B0A3714B4B16
:101B00009B6843F82900BFF35F8F0023CAE88F3F2B
:101B1000009B83F3108803B0BDE8F08F20F0010E26
:101B20009EF80710B1422ED84FF42143EB53414B9E
:101B3000B91C2944043B04375B1A2F44AEF104015D
:101B4000C91BC1F34A043C49C3F34A030B43214375
:101B5000A8F804103949A8F802304AF6AA207346BA
:101B60005B1B5B415843000D88F8076088F806004E
:101B7000C8F808B048F00100CEF80010BFE7D179EE
:101B8000B1422ED996469EF906C00CEB4C02BCF130
:101B9000000F05EB8202F2DA4BF601510EF104025E
:101BA000A8F10407BF1AC7F34A076FEAC7476FEAED
:101BB000D7478EF8064003EB0408204C05EB88035A
:101BC000AEF8047045F82840998083F806C0DE71AD
:101BD000C3F808B093E701F01DFA124B93F90040E7
:101BE00059E7724632F8041F490514D449150231E9
:101BF00002EB410101916FF00701C91B019F491BD5
:101C00003944C1F34A0141F46041C9E7019301F04D
:101C100001FA019B56E701F5FF1101F5FF511F3154
:101C2000E4E700BF751D0620042A002000ED00E057
:101C300011010010342A002000E0FFFF0148804716
:101C4000055A00202DE9F04F83B0EFF3108A72B6E9
:101C5000714ED6E8CF2F0123002AFAD1C6E8423FC1
:101C6000002AF6D1BFF35F8F6C4B00F110089B6820
:101C70006B4A53F82850954245D08D420C4650D0BF
:101C8000684FEB1B2F2B3ED801214FEA50194FEA2A
:101C9000890909F1604909F5614900F01F0301FA5A
:101CA00003F0D9F80030C9F8800000EA030BBFF355
:101CB0005F8FEFF30581C9B2002934D0884505D084
:101CC000CDE9001001F0A6F9DDE9001025F0010EC4
:101CD000DEF808C0644505D189E0D3F808C0644542
:101CE00031D09E469EF9062002EB4203002A07EB04
:101CF0008303F2DA644561D0BBF1000F20D0C9F84C
:101D00008001C9F80000454B9B6843F82850BFF399
:101D10005F8F0023C6E88F3F8AF3108803B0BDE8C9
:101D2000F08F1546EFE725F0010EDEF808C0644598
:101D3000D8D19EF906407346002C08DA154646E0D5
:101D4000C9F88000DFE793F90640002C37DB04EB8D
:101D5000440C07EB8C0C9CF80710DCF80820D971B8
:101D60009A609CF906206100002A9A713DDBBCF85C
:101D700004E05FEA4E5E05D50EF5FF1E0EF5FF5E30
:101D80000EF11F0E6FF0070C0A194FEA6E5E9200FB
:101D900002EB4E0208323A44ACEB030C6244C2F34D
:101DA0004A026FEAC2426FEAD2429A801E4B214435
:101DB0001A7807EB81011C708A719DE77346D9B9C7
:101DC000FF228EF806204BF60152AEF80420164C86
:101DD0004AF6AA2294F800C01946C91B49414A4351
:101DE000120D83F806C0227086E7104ADDE79EF9DF
:101DF00006407346002CAADA0D4A0E4CD21A083A55
:101E0000C2F30A316FEA01516FEA115144EA5202FA
:101E1000DA80998070E700BF055A002000ED00E0ED
:101E200011010010042A0020751D062001BDFFFFCE
:101E30003E2A002000F8FFFF4FF0FF0C20F00303C4
:101E400003F1604303F5644300F003001A68C00027
:101E50000CFA00FC22EA0C0281400A431A60704727
:101E6000F0B5EFF30585EDB2EFF3108C72B62649AD
:101E7000D1E8CF2F0123002AFAD1C1E8423F002A3E
:101E8000F6D1BFF35F8F214E40F0010EB4684AF6E1
:101E9000AA2354F825701E4A0446A41A64416343D9
:101EA0001B0D77455BB21BD092F906409C421CD0BB
:101EB00092F912409C4223D092F91E409C4221D0BC
:101EC00092F92A409C4208BF03240FD0114A0024F3
:101ED000157813708571C1E88F4F8CF31088F0BDB1
:101EE000B2680D4C42F82540F0E7002404EB4404AE
:101EF00002EB8402FF2494714BF601549480E5E7D1
:101F00000124F3E70224F1E7055A002000ED00E088
:101F1000042A0020751D06201101001010B5074C81
:101F200082B001460523002200940548FFF75CFCBF
:101F30000028A8BFC0F1330002B010BD40810110DD
:101F4000821D0620014B0B4403607047FC590020A2
:101F500070B5104C104DAC420ED2FF26236863B111
:101F6000FFF782FC01462046FFF7ECFFA680BFF397
:101F70005F8F0834AC42F1D370BDFFF775FC0146AA
:101F80002046FFF7DFFF2671BFF35F8F0834AC42B6
:101F9000E4D370BDF03000200031002010B50446BD
:101FA000FFF762FC01462046FFF7CCFFFF232371B9
:101FB000BFF35F8F10BD00BF10B504460120FFF7CF
:101FC0005FFC034B03442360BFF35F8F10BD00BF72
:101FD000FC590020024B0B440360BFF35F8F704736
:101FE000FC5900200D4B1A68EFF3108172B6D2E84D
:101FF000CFCF0120BCF1000FF9D1C2E84C0FBCF1EA
:10200000000FF4D1BFF35F8F00221B68C3E88F2F4E
:1020100081F3108840BF002000217047241905205B
:102020002DE9F04F2DED028B85B0EFF30583DBB288
:10203000103B9A0818BF01224FF0010103F0030B77
:1020400018BFAD4DAD4B08BFAD4D0BEB820253F841
:10205000226001FA0BF205F541539FEDA58B019229
:102060005A6031E0B3881B0440F19580B379002BAE
:1020700040F0DF80B6F90830002B0093C0F20581F4
:102080001A46736902EB420403EBC403D3E9024727
:10209000B7F1FF3F08BFB4F1FF3F0ED005EB8B0156
:1020A000AB6A0A69D21AE31A934205D301232A6A5A
:1020B00003FA0BF3134200D10C61284600F01CFC1C
:1020C000A042B941C0F2E180B6F90830019A002B74
:1020D0000093EA63C6DBD6F8148003EB4309284675
:1020E00008EBC907D7E9024A00F006FCA04271EBF1
:1020F0000A01B7DBBAF1000FC0F2CD80D7E9043195
:10210000804A934200F000817A88B6F9080092B2C2
:1021100042EA0040984702460B4652EA030100F0AB
:10212000BA80002B80F2D580B4EB020E6AEB030A72
:1021300038F93930C7E902EA002B93DB716903EB08
:10214000430201EBC202D2E90270BE457AEB000CF9
:102150004FEA430286DBB4462CF8083F06E003EB67
:10216000430001EBC0005A00D0E90270BE451A449A
:102170007AEB000001EBC20404DB31F93230A446F3
:10218000002BECDA28F83930009BACF80030B3882B
:102190001B043FF56BAF3369EFF3108272B6D3E8DF
:1021A000CF0F01210028FAD1C3E8401F0028F6D143
:1021B000BFF35F8F4FF6FF74B0880023316900B220
:1021C000B480C1E88F3F82F310889842FFF64EAF8B
:1021D0000746A946746906F1080807EB470E04EBA9
:1021E000CE03D3E90250B6F90830C446002B13DB06
:1021F000B246009704E034F936309446002B09DBF0
:1022000003EB430604EBC602D2E90271BD4270EB58
:102210000101F0DA5646009FACF8007034F93E70C8
:1022200024F83E30002FD8DAB3794D46002B3FF426
:1022300021AF0023B371B6F9083006F1080E5F1C18
:10224000009322D09C46706902E08E465A1C16D03C
:1022500003EB430200EBC2014C881F46240430F913
:102260003230F2D5BC4581ED028BEFD0AEF80030B4
:102270003189BC4620F832105A1C3781E8D16346B8
:10228000002BCDF800C0BFF6FBAE40BF05B0BDECE3
:10229000028BBDE8F08F38F8393033813369EFF3C2
:1022A000108272B6D3E8CF0F01210028FAD1C3E81B
:1022B000401F0028F6D1BFF35F8F7388316928F87B
:1022C0003930009B73800023C1E88F3F82F3108870
:1022D000C8E62846CDE9022300F00EFB029A039BD4
:1022E00010EB020E43EB010A22E700BFAFF30080C0
:1022F000FFFFFFFFFFFFFFFF00800B4038180520A6
:1023000000000B402120001008460B6902919847FD
:102310000028C0D00299D1E90023FEE62DE9F84F4C
:10232000364C25692DB1BDE8F84F0A213448FFF736
:1023300009BEDFF8E4800321404600F0CBFA032613
:10234000C4F80C80FFF790FA4FF0504C2D4B2670DC
:1023500003442361DCF800300F21637063696180FE
:102360001D834FF00405A3F878504FF00505A3F83E
:1023700090504FF00605A3F8A8504FF007050E2126
:102380004FF6FF7208274FF00A0EA3F8C0504FF027
:1023900001094FF00C0C4FF0020B4FF0090A0D2011
:1023A0004FF00B05A3F868111749A280A3F808E1C4
:1023B000A160A3F848B0A3F8F0A0A3F82051A3F8B7
:1023C00038C1A3F85001A3F83090A3F86060A3F8D7
:1023D000D8701A800D4B3046C8F820700C49DC606C
:1023E000FFF7DCFA49463046FFF796FA094B0A2117
:1023F0001F640348BDE8F84FFFF7A4BD4C2A002036
:1024000024190520FC590020FFFF10003818052072
:102410002120001000200B4000000B4000487047B6
:102420004C2A0020F8B59DF82050044617461E4659
:1024300035B900F069FA874266EB010100295CDBDF
:102440002169EFF3108372B6D1E8CF0F0122002883
:10245000FAD1C1E8402F0028F6D1BFF35F8FB4F95D
:102460000220656902EB4201002A4FEAC10C206993
:1024700005EBC10139DB35F80CE0A4F802E04FF0C0
:10248000000EC0E88FEF83F310884888069B013068
:10249000C0F30E00012838BF01200B61079B488064
:1024A0004B61C1E9027640EA02402369EFF31081F3
:1024B00072B6D3E8CF7F0126002FFAD1C3E8476F69
:1024C000002FF6D1BFF35F8FA38825F80C30A280D0
:1024D0002369C3E88FEF81F310880122E368217834
:1024E00003F501538A405A60F8BD0022C0E88F2FDF
:1024F00083F310884FF0FF30F8BD2846F8BD00BFC9
:102500000146F0B50069EFF3108772B6D0E8CF5FEF
:102510000124002DFAD1C0E8454F002DF6D1BFF3BC
:102520005F8FB1F902E04C690EEB4E0CBEF1000F6B
:102530004FEACC05086904EBCC0C3CDB665B4E80B3
:102540000026C0E88F6F87F31088BCF80200CCE942
:1025500002230130C0F30E00012838BF0120059B83
:10256000ACF80200CCF81030069B40EA0E40CCF8E4
:1025700014300B69EFF3108272B6D3E8CFCF012786
:10258000BCF1000FF9D1C3E84C7FBCF1000FF4D1CE
:10259000BFF35F8F8B886353A1F804E00B69C3E836
:1025A0008F6F82F310880122CB68097803F50153FD
:1025B0008A405A60F0BD0023C0E88F3F87F310883F
:1025C0004FF0FF30F0BD00BF03464089B0EB214F14
:1025D00037DD58690A1402EB420210B500EBC20065
:1025E0001C69EFF3108C72B6D4E8CFEF0122BEF174
:1025F000000FF9D1C4E84E2FBEF1000FF4D1BFF3A4
:102600005F8F428889B292B28A4207D000221B694A
:10261000C3E88F2F8CF31088002010BD42F40042D5
:1026200042800121002218699971C0E88F2F8CF334
:1026300010881C78DA68084602F50153A1405960F9
:1026400010BD0020704700BF407870472DE9F04171
:1026500082B004460E4600F057F94FF0FF326FF09B
:102660000043241846EB0106A24273EB06013CBF6F
:1026700014461E46A51F46F1FF37AC4276EB070312
:102680003CBF00252F4600F03FF9281A67EB010CEC
:1026900001287CF1000C06DA2046314602B0BDE884
:1026A000F04100F0A3B900F02FF9854267EB01017A
:1026B00000290ADB0021174B2A46009316483B46A7
:1026C0000191FFF71DFF0130E6D04FF0000C134AD7
:1026D0001349536A9F4204D8906AA842DCD29F42B1
:1026E000DAD10B68EFF3108072B6D3E8CF8F5FF0CA
:1026F000010EB8F1000FF8D1C3E848EFB8F1000FB0
:10270000F3D1BFF35F8F0B68C3E88FCF80F31088DE
:1027100020BFDEE7E51F00104C2A002000000B4020
:10272000241905202DE9F04182B0064600F0ECF8AE
:102730004FF47A7304464FF0FF306FF00042E6FB2F
:102740000341A04272EB01033ABF044615460D4611
:10275000A61F45F1FF37B44275EB07033CBF0026C7
:10276000374600F0D1F8301A67EB0101012871F10A
:10277000000106DA2046294602B0BDE8F04100F02B
:1027800035B900F0C1F8864267EB010100290ADB88
:102790000021174B3246009316483B460191FFF744
:1027A000AFFE0130E6D04FF0000C134A1349536AD4
:1027B0009F4204D8906AB042DCD29F42DAD10B68C3
:1027C000EFF3108072B6D3E8CF8F5FF0010EB8F14F
:1027D000000FF8D1C3E848EFB8F1000FF3D1BFF311
:1027E0005F8F0B68C3E88FCF80F3108820BFDEE7D0
:1027F000E51F00104C2A002000000B402419052082
:102800002DE9F04306460D4683B0EFF30584E4B2AC
:102810003CB12D4B5A6AAA421CD2002003B0BDE83D
:10282000F0832A4FD7F80C9097F80080484600F0C4
:1028300063F808F1040859F828301B1A301A65EBC0
:102840000101984271F1000110DB20BF1E4B5A6A52
:10285000AA42E2D314BF012400249B6AB34234BFCE
:10286000204644F0010003B0BDE8F08300F04CF8CE
:10287000864265EB0101002914DB154B3846CDE992
:10288000003432462B46FFF73BFE011E0ADD0E4B9D
:102890005A6AAA4216D39B6AB34211D30B48FFF778
:1028A00093FEB6E7084B5C6AAC42B6D3641B18BF14
:1028B00001249B6AB34234BF204644F00100ADE7D7
:1028C000AA42EBD120BFE9E700000B404C2A0020D0
:1028D000E51F001010B4054B054C064AA04214BF7A
:1028E0001846581C5DF8044BFEF752BF285E0020C6
:1028F00000800B405C8101100346416A0A46986AD9
:10290000596A8A42FAD17047034B596A0A46986A53
:10291000596A9142FAD1704700000B40002806DB4B
:102920001A4A916A936A5B1A9842FBD8704710B4AE
:10293000164A536A1946946A536A8B42FAD10019AF
:1029400053F100034FF0000228BF0122A2B90F4A41
:10295000526A934203D90D494A6A9A42FCD39A4279
:1029600007D10A4A02E0516A994202D1916A814232
:10297000F9D35DF8044B7047044B5B6A5A1C08BFDF
:102980001846EED04FF0FF331846E4E700000B4046
:1029900030B4154A536A9C46946A536A6345FAD127
:1029A000021959414FF0000528BF01250E4B5B6A03
:1029B000B5B15A1C08BF1A4608D04FF0FF310A467D
:1029C0000948436A8B42FCD38B4207D1064902E097
:1029D000486A984202D1886A9042F9D330BC704765
:1029E0009942EDD8F0E700BF00000B40074A536A58
:1029F0009942FCD8994207D1044B02E05A6A9142AD
:102A000002D19A6A9042F9D8704700BF00000B408B
:102A100000EB400C4FEA8C0C0CF1804C0CF5803C28
:102A2000F0B51646DCF80420051FB2F5803F38BF2C
:102A30004FF48032EDB238BFCCF80420012D2AD9F2
:102A40004FF40067254C0CF54052176054F82020D5
:102A5000B2B9DCF80020012D82EA461202F0E00251
:102A60000CF5805632602AD94FF4006144F82030CA
:102A70004FF480330CF500521160CCF80430F0BDF7
:102A80006769B7FBF2FE0EF1010E0EEB4E0EBEF1C2
:102A9000030EFCD2DDE70129D2D103240CF540520C
:102AA0001460DCF80820D207FBD5DCF800200B4CC2
:102AB00082EA461202F0E0020CF5805632600122F2
:102AC000DCF800504D4005F00305356002FA01F1D5
:102AD000DCF808200A42FBD0C6E700BF305E0020C9
:102AE000014B53F820007047305E0020584B2DE911
:102AF000F0431C6C1746B4F5803F38BF4FF480326A
:102B000083B038BF1A64032280460E46514B504DA5
:102B1000DA636C6CE307FCD5EB6B4F4A83F0200360
:102B200003F0E003D363EB6B494D83F0010303F043
:102B30000303D3636C6CA407FCD54FF400624FF41D
:102B40008039464B464CDA63464B4246636101216D
:102B50003346C5F840904448009700F057F94FF4C9
:102B600000616B6B07FB06F64B4538BFC5F8349028
:102B7000384B2269B8FBF6F619633AB16369B3FBC7
:102B8000F2F3013303EB4303033BFDD23049324AF6
:102B90000B6B03F0E00313630B6B83F0020303F092
:102BA000030313638B6B5807FCD54FF400654FF498
:102BB00080332A4A15632D4A4B6322610A6C9A427C
:102BC0004FF0030238BF0B64224B2149DA634B6C90
:102BD000DA07FCD5CB6B204A03F0E003D363CB6B61
:102BE0001B4983F0010303F00303D3634B6C9B0782
:102BF000FCD54FF480334FF40065184A6661D56305
:102C00000B64CA6C9A4238BFCB644FF40061114B1D
:102C1000A26999643AB16369B3FBF2F3013303EB40
:102C20004303033BFDD24FF400604FF48031084A68
:102C3000094D936C83F0400303F0E003AB64074B52
:102C4000084DA5619864D16403B0BDE8F08300BF6E
:102C50000000014000300140001001400020014010
:102C6000305E0020006CDC0200000540001BB70055
:102C70002DE9F04F4FF4A078994685B0CDE90212C6
:102C80005F4CDFF884A154450AD908F1FF38A4F558
:102C90003B54B8F10F0FA4F12004F4D1002069E0F7
:102CA000072304F53722019403FB03F402F5D872DD
:102CB000B2FBF4FE86454FF0010C4FF002074FF0D7
:102CC00003064FF004054FF005013FD0B3F1010EAC
:102CD00000F094800EFB03F4B2FBF4FB58454CD09B
:102CE00019B303FB01F4B2FBF4FB58454FD0E5B137
:102CF00005FB03F4B2FBF4FB584553D0AEB106FB21
:102D000003F4B2FBF4FB584557D077B107FB03F44B
:102D1000B2FBF4FB58455BD0BCF1000F05D00CFBB7
:102D200003F4B2FBF4FB83455DD0734603FB03F46D
:102D3000B2FBF4FE864501F1FF3105F1FF3506F1E6
:102D4000FF3607F1FF370CF1FF3CBFD104FB102425
:102D5000002CBBD19E464A46DDF808B0DDF80C9049
:102D60000120284901FB08F1CBF80010C9F8003018
:102D7000C2F800E005B0BDE8F08F04FB1024002C81
:102D8000AED14A46DDF808B0DDF80C90E8E704FB68
:102D90001024002CABD14A468E46DDF808B0DDF891
:102DA0000C90DDE704FB1024002CA7D14A46AE4668
:102DB000DDF808B0DDF80C90D2E704FB1024002CFD
:102DC000A3D14A46B646DDF808B0DDF80C90C7E757
:102DD00004FB1024002C9FD14A46BE46DDF808B003
:102DE000DDF80C90BCE704FB1024002C9DD14A4672
:102DF000E646DDF808B0DDF80C90B1E7019C44E749
:102E000050262F00001BB70050F80C0070B4039D33
:102E100004682D0345EA03451B4B002CB3FBF1F37B
:102E2000B2FBF3F61FDB194A194B904214BF4FF463
:102E300080424FF40042174C1A6003F580531A6029
:102E4000A36832EA0303FBD1212200F54053043387
:102E5000016086601A600268002AFCDA0822C560F8
:102E60001A6070BC7047036803F03F038B42DAD1ED
:102E70008368C3F30B03B342D5D1C36803F4EE23D5
:102E8000AB42D0D1EDE700BF001BB700008005408A
:102E9000002002400000024030B44FF080441C4B40
:102EA0001C60E0B11B4CA3F54053DC611A4C40F0B0
:102EB000010044401C62596298624FF080454FF017
:102EC000E061134B1548164C1D60846019604AB9C7
:102ED00030BC4FF00042A3F580531A607047114B8D
:102EE000D861EAE74FF47A7303FB02F2B2F1807F14
:102EF0002ABF6FF07F4313461A464FF080410A4CB9
:102F000008482360094B426030BC1960704700BF1D
:102F100000B00D40D3C007B02D3FF84F00A00140D6
:102F2000F3FFFF0100800D405C17052000A00D405D
:102F3000012300EB4000800000F1804000F5841088
:102F400041600360704700BF002370B5DB8A044610
:102F50000D46002242E800F2520254BF1021042123
:102F600044F25220984786462B462246F446BDE856
:102F700070400A214FF48170604700BF0023DB8A54
:102F8000002242E800F2520201D410211847042125
:102F9000184700BF08B503460846191E02DB1AB1E0
:102FA00040F03000FFF7D0FF40F02000FAE700BF0C
:102FB000034AD2F82838002BFBD0BFF35F8F70474D
:102FC00000000E400021044B044ABFF35F8F43F81A
:102FD000041B9342F9D170470C080E402C080E4098
:102FE00010B44FF48D704FF42A64064A064B07491B
:102FF0001460D06019605368002BFCDA5DF8044B54
:10300000704700BF0080044000A0044000B0FA00F8
:10301000704700BF08B50148FEF786FB80810110AC
:1030200038B5054C054DAC4204D254F8043B9847E2
:10303000AC42FAD338BD00BFA07E0110E07E011083
:1030400038B5054C054DAC4204D254F8043B9847C2
:10305000AC42FAD338BD00BFCC7E0110E07E011037
:1030600010B40748074C084B084A094904601A6025
:103070008B6832EA0303FBD15DF8044B704700BF55
:10308000002002407F3BEFEF00300240F6FFF303E9
:1030900000000240044BDB6CB3F5004F03D14FF44A
:1030A0008022024BDA64704700001150002011505A
:1030B0004FF0E022044BD2F8881D0B43C2F8883D44
:1030C00010EE3004704700BF030330006FF0604122
:1030D000044B054A19609368DB4333F06043FAD12F
:1030E000704700BF003002400000024010B545F2BA
:1030F0005320FFF743FFBDE8104003460420184764
:1031000010B545F25320FFF739FFBDE810400346E4
:1031100001201847FEF7CCBB1449154B70B55C1A5B
:10312000A610442E324628BF4422124D9200284653
:1031300013F000FDB4F5867F13D80F4AC6F14400A2
:1031400012D02B19410803EBC101C3E90022083357
:103150008B42FAD1C30704D520F00100304445F872
:103160002020064B9D6070BD4320F8E70000001052
:1031700010010010000000201101001000ED00E01F
:10318000002370B52B4C82B0C4F88430FFF728FFC1
:103190000122294BDA63636C012BFCD10321264AFF
:1031A000244B11639C6B012CFCD102260525214682
:1031B0000523224A22480096FFF728FE21462B4687
:1031C000204A21480095FFF721FE002204203146C5
:1031D0001E4BFFF71DFC2146284600221C4BFFF723
:1031E00017FC0022082011461A4BFFF711FC0022A1
:1031F00009201146174BFFF70BFC00220620114651
:10320000134BFFF705FC0022114B07201146FFF777
:10321000FFFB0420FFF764FC00240F4BA3FB0035E9
:10322000AD0CE0B229460134FFF782FE062CF8D13E
:1032300002B070BD0000014000300140002F68590D
:1032400000000540008C864700800540001BB70049
:1032500080D1F008006CDC0283DE1B4386B003B42F
:1032600051FC0804CDE9020151FC0904CDE9040137
:1032700051EC0A04CDE9060103BCF047BDE800505B
:103280004EEC00C4BDE800504EEC01C4BDE8005057
:103290004EEC02C400BD000000B5FFF7DFFF02E006
:1032A00010FE30F4F8D441EC100443EC112400EE8D
:1032B000010410EE010480EE200451EC100470476C
:1032C00000B5FFF7CBFF02E010FE30F4F8D441EC7C
:1032D000100443EC112400EE010410EE210480EEF2
:1032E000200451EC3004704700B5FFF7B7FF02E04F
:1032F00010FE30F4F8D410B541EC100443EC112466
:1033000051EC040453EC0524A0FB024C5FF0000ECA
:10331000E0FB03CEE1FB02CE4CEC20440024E1FBB9
:1033200003E444EC30E480EE200451EC5004BDE8AA
:103330001040704700B5FFF791FF02E010FE30F437
:10334000F8D441EC100443EC112451EC2104A0FB0F
:1033500001126FEA820252FB100052FB12F252FB82
:103360001000A0EBD07C53EC04245CFB13F153EC75
:103370001524A1FB022001FB030053EC4424A2EB23
:10338000000050FB1CF24FEA111312EB017043EBEB
:10339000E27140EA515020EA915020F0070053ECCE
:1033A0007524A0FB023C53EC752400FB03CC01FB0D
:1033B00002CC53EC0424ACEB824C40EA5C70A0F1EC
:1033C000010041EC400480EE200451EC7004704791
:1033D00000B5FFF743FF02E010FE30F4F8D440ECF4
:1033E000700400EE010410EE210480EE200451EC84
:1033F0003004704700B5FFF731FF02E010FE30F4F3
:10340000F8D440EC600400EE010410EE210480EEDC
:10341000200451EC3004704700B5FFF71FFF02E0B5
:1034200010FE30F4F8D441EC800400EE010410EEFC
:10343000010480EE400410EE1304704700B5FFF75E
:103440000DFF02E010FE30F4F8D441EC800400EEF1
:10345000010410EE010480EE400410EE33047047C6
:1034600000B5FFF7FBFE02E010FE30F4F8D441ECAB
:10347000100443EC112400EE010410EE3004C0F3FC
:103480000070704700B5FFF7E9FE02E010FE30F46F
:10349000F8D443EC102441EC110400EE010410EECA
:1034A00030F48CBF01200020704700BF00B5FFF74B
:1034B000D5FE02E010FE30F4F8D443EC102441ECC9
:1034C000110400EE010410EE30F42CBF01200020A6
:1034D000704700BF00B5FFF7C1FE02E010FE30F4F8
:1034E000F8D441EC100443EC112400EE010410EE7A
:1034F00030F42CBF01200020704700BF00B5FFF75B
:10350000ADFE02E010FE30F4F8D441EC100443ECC0
:10351000112400EE010410EE30F48CBF01200020D5
:10352000704700BF38B50446094814F091FC2046A6
:1035300011F0E8FF0546064814F07EFC2DB1054B5E
:103540002C449C4201D8284638BD0348FEF7ECF8CD
:10355000F0300020000008208C81011038B50546AD
:103560000C460A4814F074FC2846214612F01EFB53
:103570000546064814F060FC2DB1054B2C449C42D6
:1035800001D8284638BD0348FEF7CEF8F0300020B9
:10359000000008208C81011010B50446054814F085
:1035A00057FC204611F0B6FFBDE81040014814F06A
:1035B00043BC00BFF0300020FFF7B4BFFFF7ECBF03
:1035C000FFF7EABF9A4238BF88547047704700BF80
:1035D0002DE9F04F83B09946DDE90DAB0F9B88468E
:1035E00011469A07074616D1DA453AD20C460D46DF
:1035F000ABEB0A060E4422464B46414620200134DE
:10360000B847B442F7D12946BAF1000F08D1204695
:1036100003B0BDE8F08F0C46BAF1000F10D00E4693
:1036200055460C9B2E449A440191721B4B46013D1A
:1036300041461AF8010D3446B847002DF5D10199DD
:103640000F9B9B07E3D5651AAB45E0D922464B4655
:10365000414620200135B8475D4504F10104F5D30A
:10366000D5E70C46BAF1000FD9D1D0E72DE9F04FDC
:103670000F9FDDF8248017F0020F0A9C9DF82CA004
:103680000E9DDDE90C9644D1F5BBB44241D207F062
:10369000010B04F1FF3C4FF0300EC44404E0013450
:1036A000A6420CF801EF01D9202CF8D1BBF1000F94
:1036B00000F08880A5422CD904F1FF3C4FF0300E79
:1036C000C44404E00134AC420CF801EF21D0202CBA
:1036D000F8D117F0100F0ED017F4806F54D1A64216
:1036E00063D0A54261D0B9F1100F50D0B9F1020FEB
:1036F00056D0202C29D12024CDE90B57CDE90984BF
:10370000BDE8F04FFFF764BF17F0010B34D1B442AE
:10371000BFD317F0100F1ED017F4806FE3D1002C29
:10372000DDD1B9F1100F63D0B9F1020F77D0302499
:1037300088F800400124BAF1000F11D17E0748D566
:103740002B2608F804600134D6E7264601344FF0F2
:10375000300C08F806C0202CCDD0BAF1000FEDD007
:103760002D2608F804600134CDE90B57CDE9098412
:10377000BDE8F04FFFF72CBFBAF1000F30D0B442D4
:1037800005F1FF3585D395E7B9F1100FB3D1BE062A
:103790003BD5202CAFD0582608F804600134A8E7A8
:1037A000202CA8D02646013407E0661EB9D0B9F116
:1037B000100F36D0B9F1020FC9D14FF0620C08F8E2
:1037C00006C096E717F0100FC5D017F4806F86D0AB
:1037D00089E73E0790D5202608F8046001348BE77E
:1037E00017F00C0F00D0013DB442FFF452AF61E777
:1037F000BC0612D4782488F80040302488F80140B0
:103800000224BAF1000F99D0AAE7202C3FF473AF3D
:10381000782608F8046001346BE75824EBE762244B
:10382000E9E717F0200FA4F1020C04D04FF0580E76
:1038300008F80CE08BE74FF0780E08F80CE086E70C
:1038400000B9704701F022BC10B1D1E9003118472E
:10385000704700BF000000002DE9F04F97B09DEDCC
:10386000207BDDE9225B0746884651EC170B249C40
:1038700099460C920B4602468DED047B0794FFF7A8
:10388000F3FD002840F0F481DDE904014FF0FF3240
:103890006FF48013FFF7FAFD002840F01B81DDE98B
:1038A00004014FF0FF32AC4BFFF72CFE002840F034
:1038B000EE80DDE90401A4A3D3E90023FFF722FE93
:1038C000002840F0D380DDE90401A1A3D3E900235F
:1038D000FFF7DCFD002840F0C980DDE9040100228B
:1038E0000023FFF7D3FD002840F0E88023460D9029
:1038F00013F4806F08BF062530212B460EAAA5F1D0
:10390000200605E0013BB34202F8011B00F0938161
:10391000092BF7D81E46ED1ADDE90401FFF780FDFB
:103920008E4B044603EBC60393ED007B8DED087BC5
:10393000FFF752FD02460B46DDE90401FFF7C4FC28
:10394000DDE90823FFF7D4FC02460B46CDE90A2344
:10395000FFF778FD8246FFF751FD02460B46DDE991
:103960000A01FFF7B1FC02460B46CDE90A2300220B
:103970007B4BFFF7C7FD002800F0FE800AF1010A2B
:103980005046FFF73BFD02460B46DDE90801FFF715
:1039900091FD10B14FF0000A0134002E00F0FD80BF
:1039A000681E0EABDFF8CCC118440FE0ACFB0A2157
:1039B000C90801EB8102AAEB42023032BAF1090FC9
:1039C00000F8012F40F21C818A461D46202D05F18A
:1039D000010306F1FF36E9D12025691E0EAB6148CF
:1039E000194410E080FB0462C3EBA20303EB8302E3
:1039F000A4EB420404F1300201351C4601F8012F0A
:103A0000002B00F0EB80202D4FEAE473EAD1079BF6
:103A100003F00303012B18D1BBF1000F15D00D9B50
:103A2000002B00F00A810BF1FF3BBBF1200F0CD9FA
:103A30006B1E0EA930220B4405E001355D4503F8ED
:103A4000012F80F0D180202DF7D1079B0EACCDE95E
:103A500002B341464B4638460C9A01950094FFF755
:103A6000B7FD8246504617B0BDE8F08F079B9DED2D
:103A7000047BCDE923B341464B4638460C9A8DED85
:103A8000207B229517B0BDE8F04F00F045B96107E3
:103A900023464CBF042303234146219338464B461B
:103AA000079A48BF304CCDE922B258BF2F4C0C9A30
:103AB000209417B0BDE8F04FFFF78ABDDDE904237D
:103AC00000200021FFF700FC0123CDE904010D9344
:103AD00023460DE723469C0740F0AA80BBF1040F64
:103AE00040F2A6800C9B1D461C1F04EB0B0A2A46C5
:103AF0004B46414620200135B847AA45F7D15546E7
:103B00001B4C261F14F8010D2A464B464146B84768
:103B1000B44205F10105F5D1079B0AF1040A9807A3
:103B2000A0D50C9CAAEB04039B459BD952464B465F
:103B3000414620200AF1010AB847AAEB04039B453D
:103B4000F4D88FE7AFF300800000000065CDCD41D1
:103B50000000000065CDCDC1FFFFEF7FA89F0110E1
:103B60000000E03F67666666D8810110E0810110C1
:103B7000EC810110CDCCCCCC0022DDE90A01634BF5
:103B8000FFF784FC00287FF408AFBAF1000F6AD178
:103B90000AF1010A002E7FF403AF2046FFF71CFC58
:103BA00002460B46DDE90401FFF78EFB02460B4699
:103BB000CDE904230022554BFFF768FC00287FF471
:103BC0000CAFDDE904010022504BFFF79BFC0028FD
:103BD0007FF403AF013424F00104FEE6079B03F0F9
:103BE0000303012B00F08280202D3FF42EAF0D9BAC
:103BF0007BB32D220DEB050383F83820013524E734
:103C0000202B3FF4E9AE0EAA15441E44302204E0F6
:103C1000202B05F8012F3FF4DFAE9E4203F1010394
:103C2000F6D12E220DEB060383F83820751CD4E65E
:103C3000DDF830A063E720256EE6079B13F00C0F3C
:103C400050D00BF1FF3BAB453FF6F2AE202D3FF4D9
:103C5000FCAE079B5A0701D52B22CBE71B077FF54C
:103C6000F4AE2022C6E71AF0010F3FF496AE8FE7BC
:103C7000A60734D1BBF1030F31D90C9B1D46DC1EC6
:103C800004EB0B0A2A464B46414620200135B84733
:103C9000AA45F7D155461E4CE61E14F8010D2A46DA
:103CA0004B464146B847B44205F10105F5D1079BA3
:103CB0000AF1030A9D077FF5D5AE0C9CAAEB04031D
:103CC0009B457FF6CFAE52464B46414620200AF137
:103CD000010AB847AAEB04035B45F4D3C2E6DDF85A
:103CE00030A0D7E7AB453FF6A3AEAEE6BBF1000F81
:103CF0003FF47AAF0D9B002B9FD00BF1FF3B5D454E
:103D0000FFF496AE202D7FF474AF9EE60000E03FF6
:103D1000E7810110000000002DE9F04F9FB02A9EBE
:103D2000DDE92845074693460891099322462B462C
:103D3000204629460E96DDE92BA6FFF795FB0028C5
:103D400040F0BE80204629464FF0FF32784BFFF707
:103D5000D9FB002840F0B480204629464FF0FF32BE
:103D60006FF48013FFF792FB002840F0A9802046F3
:103D7000294600220023FFF789FB002840F0D58167
:103D8000CDE90A45DDE90A239046994606F400622A
:103D900016F480630F92139340F0A18058EA090350
:103DA00040F0CA80002A40F0E38106230E9316F00B
:103DB0000202109240F0D4815346042B38BF0423F2
:103DC0000C920422043B12920F93204629460022B3
:103DD0000023FFF75BFB002840F0F3819DED0A7B99
:103DE0000F9B5A4603930E9B8DED007B029326F4A6
:103DF000006304933846099B0899FFF72DFD02469E
:103E000016F0200F099B08990CBF6520452002F190
:103E10000108B8470C9A129B16AC5D1E82EAE27349
:103E2000A3EBE273D10F002622469946DFF804C1C6
:103E300001E0202E10D0CE46ACFB0930C00800EBCC
:103E40008003A9EB43033033BEF1090F814606F12D
:103E5000010602F8013BECD80523002006930A2353
:103E600005950094099D089C4246CDE90330CDE9B3
:103E700001612B4621463846FFF7F8FB109A804631
:103E8000D2B1A0EB0B06B24516D90BEB06022B46BE
:103E9000214620200136B847B245F6D80BF1FF3352
:103EA0005344CBF10102A3EB08034244924538BFCF
:103EB000002308F10108984440461FB0BDE8F08F88
:103EC0005A463846CDE92845CDE92BA60E9C099BDC
:103ED00008992A941FB0BDE8F04FFFF7BDBC58EA1F
:103EE00009032BD1002A3FF462AF00230C930E9BF1
:103EF0000C9A934200F3B9814FF0000820462946FE
:103F000000220023FFF7C2FA002840F013819DED44
:103F10000A7B26F4006646F480668DED287B5A46BF
:103F20003846CDE92A8A099B08992C96D2E700BF2A
:103F3000FFFFEF7FCDCCCCCC06230E93C9F30A5004
:103F4000A0F2FF30FFF748FAC1A3D3E90023FFF73F
:103F5000CFF9C1A3D3E90023FFF7A2F9C9F31309ED
:103F6000CDE90C0149F07F5140460022B24B41F4AB
:103F70004011FFF7A9F9A4A3D3E90023FFF7B8F98B
:103F800002460B46DDE90C01FFF78AF9FFF748FA14
:103F90000C90FFF721FA9EA3D3E9002380468946BF
:103FA000FFF7A6F90022A54BFFF77AF9FFF738FAD9
:103FB000034649464046129397A3D3E90023FFF7EF
:103FC00097F9804612988946FFF706FA94A3D3E939
:103FD0000023FFF78DF902460B4640464946FFF79E
:103FE00073F902460B4680468946FFF781F942463F
:103FF0004B46CDE9100140464946FFF751F90022F2
:10400000CDE91401DDE910018D4BFFF797F900228E
:104010008C4BFFF745F902460B46DDE91001FFF72F
:104020008DF90022884BFFF73BF902460B46DDE98C
:104030001001FFF783F942464B468046894600202F
:104040004FF08041FFF740F902460B464046494693
:10405000FFF726F902460B46DDE91401FFF76EF97A
:1040600000227A4BFFF71CF9129B002203F2FF3C5F
:104070004FEA0C53FFF73CF980468946DDE90A0117
:1040800042464B46FFF702FA50B10C9B4046013BBB
:1040900049460C9300226B4BFFF750F98046894646
:1040A0000C9A43466332C62A06F002021092494631
:1040B0000F9A2CD8002A5ED0042212920B433FF4B0
:1040C00016AFDDE90A0158A3D3E90023FFF706FA8A
:1040D00048B1DDE90A0156A3D3E90023FFF7D6F979
:1040E00000287FF404AF0E9B002B50D0139A002AB7
:1040F0007DD0013B0E93129B9A4505D9109B002B56
:1041000000F0AE800223109300230F9344E022BB03
:10411000BAF1050F4FD906F00203002B49D1052350
:104120001293AAF105030F933AE005F100430A94B4
:104130000B9327E626F4006646F4806638462C96F4
:10414000DDE90A67344607F100455A46CDE92A8A77
:10415000CDE92845099B0899BCE605221292ADE7F6
:1041600000230222CDE90F3204220C9312922CE696
:104170004FF00508C2E6BAF1040F1FD9109B002BBF
:1041800078D104231293AAF104030F9304E0129B45
:104190009A4531D80E9B0F930C9B002B3FF415AE24
:1041A000DDE90A0142464B46FFF7C8F8CDE90A01AE
:1041B0000BE60223109305231293F1E704231293D5
:1041C000EAE7DDE90A45A0460F9B05F100490393A4
:1041D0000E9B5A46029326F4006304933846CDE9B9
:1041E0000089099B0899FFF737FB024608E6129BF6
:1041F0009A4544D80F92CFE7109B8BB30E9B0F9339
:1042000002231093C8E700BF61436F63A787D23FC3
:1042100071A379094F930A401655B5BBB16B0240A3
:10422000EF39FAFE422EE63F2D431CEBE2361A3FF1
:104230000000000080842E410000F83F0000E03FB5
:1042400000002C4000002440000018400000F03F17
:10425000FB799F501344D33FB3C8608B288AC63F75
:10426000129BAAEB03030F9396E7A3EB020808F156
:10427000FF3843E604231293022310938CE7109B2C
:10428000002BEDD002230F92109385E72DE9F04F1C
:104290009BB0249C954D0A94954CB1F1000A18BF2F
:1042A000834625601878934C914608BFA34609932E
:1042B000002800F093824FF000080AE042464B4687
:1042C000514608F10108D847099B1878002800F0EA
:1042D000CE80099B252803F101030993EED11C46EA
:1042E0000023224612F8010BA0F1200110290AD860
:1042F000DFE801F04009093C090909090909093801
:10430000093409093000A0F130010929099440F26B
:104310008A802A2800F0F08000252E2800F0968060
:104320000026A0F1680112292DD8DFE811F049011B
:104330002C0043012C0038012C002C002C002C00F8
:104340002C002C002C0027002C002C002C002C0012
:104350002C002700144643F00103C2E7144643F043
:104360000203BEE7144643F00403BAE7144643F0E1
:104370001003B6E7144643F00803B2E709994878FA
:1043800043F480730132672809927ED8242840F2D2
:10439000C180A0F12502422A00F2BC80DFE812F0C1
:1043A0005001BA00BA00BA00BA00BA00BA00BA00A6
:1043B000BA00BA00BA00BA00BA00BA00BA00BA002D
:1043C000BA00BA00BA00BA00BA00BA00BA00BA001D
:1043D000BA00BA00BA00BA00BA00BA00BA00BA000D
:1043E000190137011901BA00BA00BA00BA00BA00BF
:1043F000BA00BA00BA00BA00BA00BA00BA00BA00ED
:10440000BA00BA00BA00BC01BA00BA00BA00BA00D9
:10441000BA00BA00BA00BA00BA00BC015801BC0127
:10442000190137011901002500E0013205EB85056E
:1044300000EB45051078303DA0F130010929F4D991
:104440002E28099202F101027FF46AAF099943F420
:10445000806348781146A0F13006092E40F2218190
:104460002A2800F02F8109920026013259E744469C
:10447000C14501D809F1FF384B464246514600205C
:10448000D84720461BB0BDE8F08FA0F16902D2B238
:104490000F2A3FD8012149F241079140394040F0AD
:1044A000F3800A2A3DD0072A34D10A9D55F8042BFF
:1044B000002A00F0138143F0210012AB1F460B933A
:1044C00003E0202900F014811A4602F00F0423466D
:1044D000092C94BF303337330F2A07F8013B01F121
:1044E00001014FEA1213ECD802E100BF8D42001027
:1044F00054170520CD3500100A99099851F8045B2E
:104500004078002DCDE90921BCBF43F002036D4284
:10451000013202E742464B46514608F10108D847AE
:10452000D2E60A99002E51F8047B18BF324638783B
:1045300008BF4FF0FF32002800F07B83BC18A44670
:104540003A4604E012F8014F002C00F03F819445F8
:10455000F8D16446E41B5A0540F12281B44228BFD9
:10456000344613F0020300F088820223CDE90A5199
:1045700042461D46464408E04B465146D84717F888
:10458000010F08F1010810B142464645F4D12B460F
:104590000B990A9D002B40F041810A9194E60999FC
:1045A00048786C287FF4ECAE0A46887843F4407370
:1045B0000332E8E6099943F4007348780132E2E6F1
:1045C00009994878682800F0038143F0800301329C
:1045D000D9E6672800F0D980472800F0DC8045281C
:1045E00000F0DB80CDE903530A9B0296073323F0EA
:1045F00007031C464246F4E802674B4651465846BC
:10460000CDE900670A94FFF787FB80465CE6462801
:1046100008BF43F02003CDE903530A9B02960733FA
:1046200023F007031C464246F4E802674B46514616
:104630005846CDE900670A94FFF70EF9804643E635
:1046400042464B465146252008F10108D8473BE633
:104650000A9A990702F1040408F1010640F1C680A4
:1046600010784B4642465146D847012D88BFA84492
:1046700040F2BD8132464B46514620200136D84794
:104680004645F7D10A941FE66F2800F0818040F27A
:104690004882782800F090810A2723F01003BC4656
:1046A00041E0002606EB860600EB4600A0F130064E
:1046B00011F8010FA0F13002092AF3D90A46099135
:1046C00001322EE6DDE9092151F8046B90780232BF
:1046D00009920A91013226EAE67622E623F01000DA
:1046E00013F4806240F021003FF4E7AE12AB0B936D
:1046F0000B9B06900093082310200593002342464D
:10470000CDE9023001914B46514658460496FEF7DA
:10471000ADFF0A958046D7E5582862D0622840F060
:104720008F800227BC4613F4806000F0DD8023F008
:104730000D0313F4007240F081810A990F1D13F4E8
:10474000807140F037825C060A9A40F13B81127812
:10475000002A40F04E8123F01003002800F0498128
:10476000114612AA0B92CDE90553CDE903C601917A
:104770000B9B4246009300235146029358464B46FA
:10478000FEF774FF0A9780469EE543F4006329E72D
:104790000827BC46C7E743F4006343F0200321E742
:1047A00013F0020300F08E8102230A951E460D4687
:1047B00042464B465146D84717F8010F08F1010809
:1047C0000028F5D1294633460A9DE3E6D41BC2E60C
:1047D0000A46887843F0C0030332D4E50446804695
:1047E00046E6102743F02003BC469CE7012D40F22B
:1047F000F880464608F1FF372F4432464B46514673
:1048000020200136D847BE42F7D10A9B324618789D
:1048100051464B46D847A8440A9455E54646A5421A
:104820007FF6BBAEA844A8EB04080C4632464B46C4
:10483000514620200136D8474645F7D12146ACE6FF
:1048400013F4806200F0BB804FF4806223F0110CFF
:104850001CF400770A9B4AD11CF4807003F1040415
:1048600040F034811CF0400F40F0A3801CF0800F1A
:1048700000F0D381B3F9001081EAE177A7EBE1778B
:10488000BFB2CB0F002900F056813A4612A90F465D
:10489000DFF8D8E30B910A930C9501E020280FD0A4
:1048A0001546AEFB0213DB0803EB8301A2EB4101CB
:1048B0003031092D1A4600F1010007F8011BEDD82F
:1048C0000A9B0C9DCDE9055CCDE9010304960B9B89
:1048D000424600930A235146039358464B46FEF73F
:1048E000C5FE0A948046EFE423F00C0321E707336A
:1048F00023F00703194608465B6850F8081BDF0FD2
:104900000A9051EA030062D1002A40F09F811346C9
:10491000114612AACDE90C7500201546CDE90E68A6
:10492000DFF848E30B9201E020282DD05A1842F11D
:104930000002AEFB027828F0030707EB9807D21BB2
:104940001E469B1A61F100070C464FF0CC3101FB6B
:1049500003F10EFB0711A3FB0E731944052307F0A7
:104960000108A8FB03389B180A2E03F130034FEA15
:10497000570774F1000405F8013B00F1010047EA14
:10498000C1734FEA5101CFD2DDE90C75DDE90E6844
:104990000B9B424600930A23CDE9055CCDE9010754
:1049A000049603934B4651465846FEF75FFE8046F9
:1049B0008AE419780F4664E71027BC46B3E623F073
:1049C000100C45E71C064CBF12881268C0E60A4668
:1049D000191E01DB13469CE75242134661EB41016D
:1049E00097E713465146187842464B46D847B0469B
:1049F00048E613F0200F14BF4120612012ACA646F8
:104A00000B940A93A0F10A040C9502E0202912D01D
:104A10002A46B2FBFCF50CFB1520C3B2092803F1B2
:104A200030008ABF1B19C3B2DBB262450EF8013BEE
:104A300001F10101EAD20A9B0C9D94E60A9A073221
:104A400022F00702516852F8084B8E460A9254EA47
:104A5000010276D123F01003002872D00022114603
:104A600012AA0B92CDE905530B9B424600930023FB
:104A7000CDE903C60191029394E7A54298BF0134A2
:104A80007FF674AD4FF48063CDE90A7505EB08023B
:104A90001F460D46141B42464B465146202008F146
:104AA0000108D847A045F6D13B460A9F29463878E9
:104AB0000B9D6C1C00283FF470AD002B3FF475AECD
:104AC000002353E5A542DFD801346EE61968CB0F09
:104AD000002900F0A88081EAE172A2EBE17212A93C
:104AE0000846DFF888E10B910A930C9501E0202F2E
:104AF0000FD01546AEFB0213DB0803EB8301A2EBDC
:104B000041013031092D1A4607F1010700F8011B58
:104B1000EDD80A9B0C9DCDE9055CCDE901730496A7
:104B2000D5E6692823F0100C40F08C8013F48062E5
:104B30003FF48EAE88E6002A3FF4A8AE12AA0B928C
:104B4000C0E613F0200F14BF41226122002012A9F9
:104B50000A3ACDE90E68CDE90C35CDF844B00646E9
:104B60008846754693460B91CDF840C003E0202E51
:104B700017D004460D4629463A460023204613F036
:104B800057F9D2B2092A02F1300388BF02EB0B03B6
:104B9000BC42DBB275F1000508F8013B06F10106E5
:104BA000E5D23146DDE90C35DDE910CBDDF83C809E
:104BB0000E9E57E70A99096851B923F0100338B1DE
:104BC00012A90B91CDE90553CDE903C60192CFE5BA
:104BD00013F0200F14BF4120612012ACA6460B94A5
:104BE0000A93A0F10A040C9502E0202A12D029466B
:104BF000B1FBFCF50CFB1510C3B2092803F1300022
:104C00008ABF1B19C3B2DBB261450EF8013B02F14A
:104C10000102EAD20A9B0C9DD4E7196881EAE17788
:104C2000A7EBE1772DE6002A3FF459AF12AA0B92C9
:104C300071E713F480640DD013F0020412D004461F
:104C40004646ECE50A276346BC466CE512AB0020FD
:104C50000B939DE613F002037FF4E0AD002D7FF48B
:104C600013AF9AE4002D7FF40DAF96E4CDCCCCCCFD
:104C70000EB410B585B007AC54F8043B01464FF0B4
:104C8000FF32009404480394FFF700FB05B0BDE831
:104C9000104003B0704700BFC535001070B5944692
:104CA0001E4605460C4684B04FF0FF32634602A90B
:104CB00000960348CDE90254FFF7E8FA04B070BD4E
:104CC0004938001010B5094B84B01C684CB103463C
:104CD00000914FF0FF3203A90548A047012004B01E
:104CE00010BD00F015FA204604B010BD5417052081
:104CF0004138001000BEFDE7074A0346106838B18E
:104D0000064903448B428CBF4FF0FF30136070475D
:104D1000034908461160F3E734130520000008201A
:104D2000841D0620002070474FF0FF30704700BF01
:104D300003460846114623B9034BD3E9002300F08C
:104D40003FB94FF0FF307047489F0110431E012BC1
:104D500009D810B51446084601230022214600F068
:104D6000B9F8204610BD4FF0FF3070474FF0FF30CC
:104D7000704700BF4FF0FF30704700BF4FF0FF306B
:104D8000704700BF02288CBF00200120704700BF81
:104D900008B5FFF7AFFF00BF38B5064C064DFEF76C
:104DA0003FF9AC4204D254F8043B9847AC42FAD3E2
:104DB00038BD00BFE07E0110F87E01100368084690
:104DC000114618472DE9F0411546427D07468846B1
:104DD000002A46D0002D1DDD0B780A2B23D0012D93
:104DE0004FF0000C18D04646012416F8012F21463A
:104DF0000A2A04F1010422D0A542F6D165450BDC54
:104E000008EB050313F8013CA3F10D03B3FA83F398
:104E10005B093B75BDE8F0813B68A5EB0C0108EB35
:104E20000C009847ECE7037D002BD8D103680221E2
:104E30000F489847012DE3D04FF0010CD3E716F847
:104E4000013C0D2BD8D08C4508EB0C00A1EB0C01DC
:104E500001DA3B689847022105483B689847A44619
:104E6000CAE7294640463B68BDE8F041184700BF05
:104E7000F89F01100B682DE9F041802B0D46064686
:104E800005D05A1C2B442A601E71BDE8F0810F4BDF
:104E90001C68A4B10E4F01F1040801E0246974B14B
:104EA0002368002BFAD03B680BB1A342F6D1204611
:104EB00041462A68FFF786FF2469002CF0D10023C1
:104EC00001222B442A601E71BDE8F081945E00200F
:104ED000246300202DE9F04782B00D4691461C4620
:104EE0000646FDF711FD4FF0FF3C6FF000472E4ADC
:104EF000821841F10003944577EB03013CBF624601
:104F00003B462A4812F0B0FF6B1C804640D00CB3E1
:104F1000274F284B1C68B4B1B9F1000F1CD1DFF842
:104F20009C9001E0246974B12368002BFAD0D9F871
:104F300000300BB19C42F5D120462A463146B84795
:104F40002469002CF0D1B8F1000F26D1284602B018
:104F5000BDE8F087184FDCE74FF00A0ADFF85C90F5
:104F600002E02469002CEED02368002BF9D0D9F898
:104F700000300BB1A342F4D12A4631462046B8474F
:104F8000012220460DF107018DF807A0B847E8E798
:104F9000304611F045FE0546B9E7044812F04CFFD3
:104FA000284602B0BDE8F08740420F00F8300020EC
:104FB000C54D0010945E0020BD4D001024630020FC
:104FC0002DE9F04F984607460E4683B0DFF860B0F3
:104FD000DFF86090DFF860A00192DBF8004014B9C0
:104FE00011E024697CB1D9F800500DB1A542F8D187
:104FF000A268002AF5D03146384690470028F0DDF7
:1050000003B0BDE8F08FDAF8242090450BD8DAF829
:105010002810019B994204D36FF0010003B0BDE852
:10502000F08F9045F8D101200021FDF7B1FCD4E7C5
:10503000945E00202463002000000B40084A13689F
:1050400023B90AE003F110021B6933B18342F9D19D
:1050500029B9186910601961704701B11060704773
:10506000945E0020074B10B51C682CB1636823B117
:1050700098472469002CF9D110BD2469002CF5D182
:1050800010BD00BF945E002000F0DEBAF0B583B022
:1050900006468DF80700FDF737FC4FF0FF356FF03F
:1050A0000044174A821841F10003954274EB030152
:1050B0003CBF23462A46134812F0D6FE124B074641
:1050C0001C689CB1114D01E024697CB12368002B60
:1050D000FAD02B680BB19C42F6D1204601220DF18B
:1050E0000701FFF76FFE2469002CEFD117B9304696
:1050F00003B0F0BD034812F09FFE304603B0F0BD90
:1051000040420F00F8300020945E0020246300200D
:1051100038B5044611F084FD012305461A462046A1
:105120002946FFF7D7FE084B1C682CB163682BB1EA
:1051300098472469002CF9D1284638BD2469002CF1
:10514000F4D1284638BD00BF945E00202DE9F0411F
:10515000A2B004460D46FDF7D7FB4FF0FF376FF0C6
:105160000046264ADFF8A480821841F100039742E6
:1051700076EB03013CBF3A463346214812F074FEF9
:1051800000272B462246064601A91E480197FFF735
:1051900085FD019B0546D8F80040C3B1002C2BD0FB
:1051A000194F01E0246974B12368002BFAD03B68E1
:1051B0000BB1A342F6D12046019A02A9FFF702FEE5
:1051C0002469002CF0D10023D8F8004001932CB1C1
:1051D000636843B198472469002CF9D12EB9284659
:1051E00022B0BDE8F0812469F1E7054812F024FE01
:1051F000284622B0BDE8F0810194EFE740420F005D
:10520000F8300020754E001024630020945E0020CA
:105210000FB400B583B004A951F8040B0191FFF756
:1052200095FF03B05DF804EB04B07047704700BF12
:105230000022014B1A707047761D06204B79FF2B18
:105240000BD1887948B9CB79012B07D1082A05D928
:10525000034B8A7809201A7070470020704700BFFE
:10526000761D062001207047012901D001207047DA
:1052700008B5104B91881B78994201D0002008BDD9
:105280005378012B08D0022BF8D100216422084664
:10529000FDF702FE012008BD5188CB0548BF480A32
:1052A000C1F3402258BF4FF0FF3001F07F01FDF7FE
:1052B00071FE00BF761D062000487047C4A0011093
:1052C000012907D15378012B02D19388072B03D0F2
:1052D00000207047012070471146A623014A01F0C3
:1052E00039BA00BF1CA001100346012201481A7000
:1052F000704700BFFC9F011008B50B68B3F5966FAF
:1053000000D008BD00224FF0FF301146FDF742FEED
:10531000024A034B10601960704700BF1C5E0020FA
:10532000205E0020184B70B51A68002A28D0EFF3D1
:10533000108172B6D2E8CF4F0120002CFAD1C2E81A
:10534000440F002CF6D1BFF35F8F00220F4C18687A
:1053500059602270C0E88F2F81F310880024002547
:105360000B4E3078FCF7EEFA20B9002400252046D9
:10537000294670BD3078FCF7F5FA2046294670BD05
:105380004FF47A740025EBE730180520801D0620C5
:10539000771D0620014B1878FCF7E4BA771D06202C
:1053A00038B5044600200D4601F004FBA8B30020E8
:1053B00001F016FB88B3FDF7A7FA4FF0FF3E6FF040
:1053C000004C174A821841F1000396457CEB03011B
:1053D0003CBF72466346134812F046FDE8B1002018
:1053E00001F0E8FA58B900214FF0FF3000F00AFD53
:1053F0006FF002040B4812F01FFD204638BD00205C
:1054000001F0EEFA0028EED021462A46002001F0F5
:10541000F1FA04460028EDD1EAE76FF00204ECE768
:1054200040420F002819052008B5FDF76DFA4FF02E
:10543000FF3E6FF0004C0F4A821841F10003964581
:105440007CEB03013CBF724663460B4812F00CFD37
:1054500070B14FF0FF30002100F0D4FC002001F0CB
:1054600011FB0028F5D1BDE80840034812F0E4BC68
:1054700008BD00BF40420F00281905202DE9F84360
:1054800080460F46FDF740FA4FF0FF356FF00044BD
:10549000334A821841F10003954274EB03013CBF8B
:1054A0002A4623462F4812F0DFFC08B9BDE8F883EE
:1054B000002001F07FFA002847D0002F40DD0025B2
:1054C000DFF8A890284E13E02246002001F020FBD0
:1054D000002104464FF0FF3000F094FC002001F062
:1054E000D1FAFDF711FAC9E900012544AF4227DDE1
:1054F000002001F02DFB7C1B8442A8BF044608EB72
:105500000501002CE0D121464FF0FF3000F07AFC7D
:10551000204601F0B7FA204601F04CFA80B120464F
:1055200001F016FB0028E1D1FDF7EEF9D9F80030C3
:10553000D9F804209B1942F1000283428A41D5D256
:105540000848BDE8F84312F077BC00200021074B63
:10555000C3E90001BDE8F843024812F06DBC00BF8A
:1055600040420F002819052020A10700E054002028
:1055700030B5002185B02E4812F08AFCF0B92D4BD1
:105580001A68CAB1EFF3108172B6D2E8CF5F012476
:10559000002DFAD1C2E8454F002DF6D1BFF35F8F41
:1055A000254C1D6822785960D3B201222270C5E8CB
:1055B0008F0F81F31088CBB105B030BD00214FF0C3
:1055C000FF3000F01FFC002001F00AFA04461848E2
:1055D00012F032FC002CEFD0184B1B68002BEBD0E4
:1055E000174A106805B0BDE830401847FCF716FFB1
:1055F0000446FDF789F94FF0FF3C6FF0004510F5C8
:105600007A7241F10003944575EB030138BF2B46D4
:105610004FF000014FF0010520460A4C38BF6246AA
:10562000CDE901150094FCF7FDFE05B030BD00BFCB
:105630002819052030180520801D06201C5E00203A
:10564000205E0020255300104FF0504330B585B048
:105650001C68FCF7E3FEFCF7F7FFA04202D0002035
:1056600005B030BD00212A4B08461B7801F038FDFB
:1056700028480368002B47D00120FCF74FFC034665
:10568000254C2649C0B22370FCF788F92078012107
:10569000FCF742F90E20FCF771F940BB204B0125C5
:1056A000C3E90000FCF7BAFE0446FDF72DF94FF000
:1056B000FF3E6FF0004C10F57A7241F10003964501
:1056C0007CEB03014FF000012046164C3CBF7246B4
:1056D0006346CDE901150094FCF7A4FE0028BEDB6B
:1056E00001211148FFF7AAFC012005B030BD0120BF
:1056F000FCF7C6F801460A48FCF76CFC00220E20B5
:105700000A49FCF7ABF9EBE7FCF748FCB4E700BF4C
:105710006CB6011028190520771D06207155001060
:105720003018052025530010642A002095530010DE
:105730000048704760A10110004870470CA101109B
:1057400038B5184B04461A780AB344B940F20942F6
:105750004FF44173144D6A8013482B8038BD052CDB
:105760001DD8124B104D53F8241028460023013940
:1057700003E0132B20F8022F0ED011F8012F013374
:10578000DBB2002AF5D15B0043F44073E4E711215A
:10579000184600F025F8D8E74FF44A73DCE70020FC
:1057A00038BD00BF34190620585E0020F4A0011057
:1057B00000B545F247308BB0FDF7E0FB0122034610
:1057C000092101A89847DDE90332044912BA1BBA3E
:1057D000C1E900230BB05DF804FB00BF18190520D8
:1057E000012901F1FF3300F0B3805D490A784FEAE7
:1057F000121C9F2A8CBF0CF1370C0CF1300C012BC2
:1058000080F800C000F0A78002F00F02092A8CBFC8
:1058100037323032022B427000F09D804A784FEAD6
:10582000121C9F2A8CBF0CF1370C0CF1300C032B8F
:1058300080F802C000F08F8002F00F02092A8CBFAE
:1058400037323032042BC27000F085808A784FEAFC
:10585000121C9F2A8CBF0CF1370C0CF1300C052B5D
:1058600080F804C077D002F00F02092A8CBF3732CB
:105870003032062B42716ED0CA784FEA121C9F2A32
:105880008CBF0CF1370C0CF1300C072B80F806C0E4
:1058900061D002F00F02092A8CBF37323032082B58
:1058A000C27158D00A794FEA121C9F2A8CBF0CF1A2
:1058B000370C0CF1300C092B80F808C04BD002F0EB
:1058C0000F02092A8CBF373230320A2B427242D083
:1058D0004A794FEA121C9F2A8CBF0CF1370C0CF14D
:1058E000300C0B2B80F80AC035D002F00F02092AC9
:1058F0008CBF373230320C2BC2722CD08A794FEAEF
:10590000121C9F2A8CBF0CF1370C0CF1300C0D2BA4
:1059100080F80CC01FD002F00F02092A8CBF37326A
:1059200030320E2B427316D0CA7911099F2A8CBFD0
:10593000373130310F2B81730DD002F00F02092A5D
:1059400094BF30323732102BC27318BF103002D0E0
:10595000002303707047184400230370704700BF92
:105960001819052070B500F02DF90C234026194CAC
:10597000FF22A3670E201849FCF770F83246002179
:10598000164810F091FD0125002380211348144A88
:10599000418445700683068782604360136042F845
:1059A000043C80F8213080F83B3043620D4B4FF0CF
:1059B0000056C360C362803B836212F00DFA4FF45D
:1059C00080320949094B25642846E664C4F89010E2
:1059D000DA6470BD000011501D040020381305204A
:1059E000840010500001105010D001000020115010
:1059F00001210E20FBF790BF00220248114600F063
:105A000001B900BF58130520044B197021B14FF4A0
:105A10000032034BC3F89020704700BF6C1D062076
:105A2000002011500B785B0602D14B78052B00D07B
:105A300070474B88014ADBB2136070470000115079
:105A4000CB782DE9F04103F0030EBEF1010FC3F353
:105A500001005BD0002791F802C0344C0CF07F02AB
:105A60005600898806EBDC1304EB43134FEADC1580
:105A7000D876C1F30A0185F0010083F802C01983CA
:105A80005870DF70D3008DBB2948043304EB821CAF
:105A900003EB0008CCF808801F5082B3254BD200DE
:105AA0001344CCF80430244B3F311A6821F03F01F5
:105AB000BEF1020F08BF4900114419601F4B77194E
:105AC00004EB47179942FA602BD82E4404EB461397
:105AD000D97E82F0A04282F480125B6842EA816241
